{
  "_format": "hh-sol-artifact-1",
  "contractName": "Auth",
  "sourceName": "contracts/auth.sol",
  "abi": [
    {
      "inputs": [],
      "name": "login",
      "outputs": [
        {
          "internalType": "bool",
          "name": "",
          "type": "bool"
        }
      ],
      "stateMutability": "view",
      "type": "function"
    },
    {
      "inputs": [],
      "name": "register",
      "outputs": [],
      "stateMutability": "nonpayable",
      "type": "function"
    }
  ],
  "bytecode": "0x608060405234801561001057600080fd5b50610284806100206000396000f3fe608060405234801561001057600080fd5b50600436106100365760003560e01c80631aa3a0081461003b578063b34e97e814610045575b600080fd5b610043610063565b005b61004d610148565b60405161005a91906101b6565b60405180910390f35b6000803373ffffffffffffffffffffffffffffffffffffffff1673ffffffffffffffffffffffffffffffffffffffff16815260200190815260200160002060009054906101000a900460ff16156100ef576040517f08c379a00000000000000000000000000000000000000000000000000000000081526004016100e69061022e565b60405180910390fd5b60016000803373ffffffffffffffffffffffffffffffffffffffff1673ffffffffffffffffffffffffffffffffffffffff16815260200190815260200160002060006101000a81548160ff021916908315150217905550565b60008060003373ffffffffffffffffffffffffffffffffffffffff1673ffffffffffffffffffffffffffffffffffffffff16815260200190815260200160002060009054906101000a900460ff16905090565b60008115159050919050565b6101b08161019b565b82525050565b60006020820190506101cb60008301846101a7565b92915050565b600082825260208201905092915050565b7f5573657220616c72656164792072656769737465726564210000000000000000600082015250565b60006102186018836101d1565b9150610223826101e2565b602082019050919050565b600060208201905081810360008301526102478161020b565b905091905056fea264697066735822122096d0bacaa401a58b737889cf5c02163afb4a52421522dc75113b6141aac1dffc64736f6c63430008140033",
  "linkReferences": {},
  "deployedLinkReferences": {}
}